:100000000C9457010C9488010C9488010C9488017D
:100010000C9488010C9488010C9488010C9488013C
:100020000C9488010C9488010C9488010C9488012C
:100030000C9488010C9488010C9488010C9488011C
:100040000C9488010C9488010C9488010C9488010C
:100050000C9488010C9488010C9488010C94CB02B8
:100060000C9488010C943F030C9415030C948801A4
:100070000C9488010C9488010C9488010C948801DC
:100080000C9488010C9488010C9488010C948801CC
:100090000C9488010C9488010C9488010C948801BC
:1000A0000C9488010C9488010C9488010C948801AC
:1000B0000C9488010C9488010C9488010C9488019C
:1000C0000C9488010C9488010C9488010C9488018C
:1000D0000C9488010C9488010C9488010C9488017C
:1000E0000C948801A507A80797079B079F07DF07C0
:1000F000AC07B007B607BA07BE07C407C807CC07E6
:10010000DF07D207D607DA070C948A010C94E901BD
:100110000C94C8070C94B0070C94A8070C946E02BA
:100120000C94AC070C94BE070C9497070C949B0797
:100130000C94D2070C949F070C94B6070C94D60726
:100140000C9421020C94BA070C94DF070C94DA0784
:100150000C94DB010C94C7010C94CC070C94A507FC
:100160000C94280D0C94C4070C94B801005EBCE2FA
:10017000613FDD83C29C7E20A3FD1F41009D23BE05
:1001800046DB65F88C11AF32CA57E97400002100D4
:10019000240027002A002D00300033000101000058
:1001A000040107010A0100002200250028002B009D
:1001B0002E003100340002010000050108010B018E
:1001C00000000A0B02090C0D0E08070304010000D1
:1001D000000000000000000000000000000000001F
:1001E00000000000000000000000000012111000DC
:1001F00000000000000000000000000000000000FF
:10020000000000000000000020002300260029005C
:100210002C002F003200000100000301060109013B
:1002200005050505070508080808020202020A0A72
:100230000808040404040101010101010101030390
:10024000030303030303040707070C0C0C0C0C0C3B
:100250000C0C0202020206060606060606060B0B38
:100260000B0B0B0B0B0B0102102020080810204079
:10027000102040800201020108040201010204086A
:1002800010204080804020100804020180040201F8
:100290008040201008040201080402010102040841
:1002A000102040800102040810204080280D1124F5
:1002B0001FBECFEFD1E2DEBFCDBF00E00CBF12E02A
:1002C000A0E0B2E0ECEEF0E200E00BBF02C007906D
:1002D0000D92A036B107D9F723E0A0E6B2E001C045
:1002E0001D92AD37B207E1F711E0C7E5D1E000E0BC
:1002F00006C021970109802FFE010E94890EC63594
:10030000D10780E00807A9F70E94650A0C947410D1
:100310000C940000CF92DF92EF92FF920F931F9305
:10032000CF93DF936C017A018B01C0E0D0E0CE1552
:10033000DF0581F0D8016D918D01D601ED91FC9121
:100340000190F081E02DC6011995892B11F02196BD
:10035000EECF7E01C701DF91CF911F910F91FF90EA
:10036000EF90DF90CF900895089580E090E0089599
:10037000FC01538D448D252F30E0842F90E0821BAB
:10038000930B541710F0CF96089501970895FC0130
:10039000918D828D981761F0828DDF01A80FB11DBC
:1003A0005D968C91928D9F5F9F73928F90E00895E0
:1003B0008FEF9FEF0895FC01918D828D981731F09A
:1003C000828DE80FF11D858D90E008958FEF9FEFEE
:1003D0000895FC01918D228D892F90E0805C9F4FC4
:1003E000821B91098F739927089582E792E00E94FA
:1003F000E90121E0892B09F420E0822F0895FC0116
:10040000848DDF01A80FB11DA35ABF4F2C91848D9D
:1004100090E001968F739927848FA689B7892C93D2
:10042000A089B1898C91837080648C93938D848D25
:10043000981306C00288F389E02D80818F7D808328
:100440000895EF92FF920F931F93CF93DF93EC01E8
:1004500081E0888F9B8D8C8D981305C0E889F98980
:10046000808185FD26C0F62E0B8D10E00F5F1F4F9B
:100470000F731127E02E8C8DE8120CC00FB607FC0D
:10048000FACFE889F989808185FFF5CFCE010E94F6
:10049000FF01F1CF8B8DFE01E80FF11DE35AFF4FF5
:1004A000F0829FB7F8940B8FEA89FB898081806284
:1004B0000AC09FB7F894EE89FF896083E889F989BB
:1004C00080818370806480839FBF81E090E0DF91B2
:1004D000CF911F910F91FF90EF900895CF93DF93ED
:1004E000EC01888D8823C9F0EA89FB89808185FD2C
:1004F00005C0A889B9898C9186FD0FC00FB607FC8D
:10050000F5CF808185FFF2CFA889B9898C9185FFCD
:10051000EDCFCE010E94FF01E7CFDF91CF9108958B
:1005200080E090E0892B21F00E94F501811125C027
:1005300080E090E0892B41F080E090E0892B21F071
:100540000E94000081111CC080E090E0892B41F0E6
:1005500080E090E0892B21F00E940000811113C0FF
:1005600080E090E0892BA1F080E090E0892B81F081
:100570000E94000081110AC008950E940000D8CF97
:100580000E940000E1CF0E940000EACF0C9400001E
:1005900008950E946F101F920F920FB60F921124B0
:1005A0002F933F938F939F93AF93BF9380916A0252
:1005B00090916B02A0916C02B0916D023091690232
:1005C00023E0230F2D3720F40196A11DB11D05C096
:1005D00026E8230F0296A11DB11D20936902809386
:1005E0006A0290936B02A0936C02B0936D028091AB
:1005F0006E0290916F02A0917002B091710201960B
:10060000A11DB11D80936E0290936F02A0937002A2
:10061000B0937102BF91AF919F918F913F912F91B4
:100620000F900FBE0F901F9018951F920F920FB64C
:100630000F9211240BB60F922F933F934F935F931A
:100640006F937F938F939F93AF93BF93EF93FF939A
:1006500082E792E00E94FF01FF91EF91BF91AF917D
:100660009F918F917F916F915F914F913F912F91CA
:100670000F900BBE0F900FBE0F901F9018951F92FA
:100680000F920FB60F9211240BB60F922F938F93E8
:100690009F93EF93FF93E0918202F0918302808118
:1006A000E0918802F091890282FD12C090818091D0
:1006B0008B028F5F8F7320918C02821751F0E09133
:1006C0008B02F0E0EE58FD4F958F80938B0201C0B6
:1006D0008081FF91EF919F918F912F910F900BBE91
:1006E0000F900FBE0F901F901895DC0180E06150B5
:1006F00098F02D91982F9227E92FEF70F0E0E459B0
:10070000FE4F249192959F70E92FF0E0E458FE4F40
:10071000E491822F8E27EBCF0895FC019081018018
:10072000F281E02DF8948181892B81832281892FA8
:10073000809528232283A7E0B0E01197F1F721816B
:1007400082238183A3E2B0E01197F1F7808178944E
:10075000EFECF0E03197F1F7982381E009F480E0C5
:100760000895FC0190810180F281E02D892F809510
:1007700060FF12C0F8942281822382838181892BB9
:100780008183A3E2B0E01197F1F78281982B9283E5
:10079000789487ED90E011C0F894228182238283BF
:1007A0008181892B8183AFEFB0E01197F1F78281CE
:1007B000982B928378948FE090E00197F1F7089559
:1007C000DF92EF92FF920F931F93CF93DF93EC0191
:1007D000D62EE42E08E010E0FF24F39461E08D2D86
:1007E0008F2109F460E0CE010E94B103FF0C01509B
:1007F0001109A1F7E11010C0F894E981FA81918103
:100800008881809589238183E981FA819281888119
:100810008095892382837894DF91CF911F910F91E6
:10082000FF90EF90DF900895EF92FF920F931F9348
:10083000CF93DF938C017B0140E065E50E94E003EC
:10084000E70188E0E80EF11C699140E0C8010E94D0
:10085000E003CE15DF05C1F7DF91CF911F910F9116
:10086000FF90EF900895DC012C911196ED91FC9191
:100870001297F8948181922F90958923818378949F
:100880008DE743E050E0815021F1DA011197F1F753
:1008900030813223C1F3F89482818923828381815C
:1008A000822B81837894ABE7B7E01197F1F7F89446
:1008B00081819823918383E191E00197F1F7808111
:1008C000282381E009F080E07894E3E6F6E03197B0
:1008D000F1F708953FB7F89480916E0290916F02FE
:1008E000A0917002B091710226B5A89B05C02F3F60
:1008F00019F00196A11DB11D3FBFBA2FA92F982F46
:100900008827820F911DA11DB11DBC01CD0142E0C0
:10091000660F771F881F991F4A95D1F70895AF92E8
:10092000BF92CF92DF92EF92FF920F931F93CF93DC
:10093000DF938B01BC018091190390911A030E94EF
:10094000140440E06EEB8091190390911A030E9409
:10095000E003E801680189E0C80ED11CA0901903EA
:10096000B0901A0388E0E82EF12C10E001E0C501F8
:100970000E948D038111102B000F81E0E81AF1080D
:10098000B1F71993CC16DD0649F7809119039091C0
:100990001A030E94330491E0813009F090E0892F1E
:1009A000DF91CF911F910F91FF90EF90DF90CF904B
:1009B000BF90AF900895BF92CF92DF92EF92FF92D7
:1009C0000F931F93CF93DF93EC016B018D85811102
:1009D00005C0CE010E943304811105C01B861D860F
:1009E0001C8680E060C040E060EFCE010E94E00322
:1009F00001E0E12CB12C11E0CE010E948D03F82E14
:100A0000CE010E948D0391E0F91203C08130B1F450
:100A100034C02E2D30E0F8121BC08B85181738F427
:100A2000FE01E20FF31F8381802341F402C081178E
:100A300029F0F12C193058F41C8709C0FE01EE0D85
:100A4000F11D8381802B8383FF24F39409C0B12E91
:100A5000FE01E20FF31F9381802F8095892383830A
:100A60006F2DCE010E94B1031F5F000F11F4E394BC
:100A700001E087E08E1508F0BFCF113408F4AECF47
:100A8000BB86B11002C081E08D878B81882309F479
:100A9000A5CFDE011396F6012B968D918193CA178F
:100AA000DB07D9F781E0DF91CF911F910F91FF9084
:100AB000EF90DF90CF90BF900895CF93DF93CDB7A5
:100AC000DEB761970FB6F894DEBF0FBECDBFE091E1
:100AD0001903F0911A03138615861486DF011B96FD
:100AE000CF0103961E928A179B07E1F7BE01665F4E
:100AF0007F4FCF010E94DB04882341F067E0CE01E5
:100B00000A960E9475039989891729F06AE979E99B
:100B100084E493EC63C08091190390911A030E94BE
:100B20003304882309F457C0BE016F5F7F4FCE01A5
:100B30000A960E948F04882309F44DC068E0CE0114
:100B400001960E9475039985891345C02A8130E07A
:100B5000C901982F8827990F990F990F698128E06B
:100B6000629FB00111249C01262B372B8A8580318E
:100B7000C9F4688570E08F81AB01481B5109CA0137
:100B80009695982F8827979587950E94530E6051C8
:100B90007109207F53E0220F331F5A95E1F7620F4E
:100BA000731F01C0B901613854EE75070CF4AECF64
:100BB000072E000C880B990B0E94480F26E636E69C
:100BC00046E65CE30E94FD0F20E030E040E052E4A6
:100BD0000E94A60E03C060E874EEE5CF61960FB6E2
:100BE000F894DEBF0FBECDBFDF91CF9108950F9374
:100BF0001F93CF93DF93CDB7DEB729970FB6F89445
:100C0000DEBF0FBECDBF8C018091190390911A03F6
:100C10000E943304882309F1BE016F5F7F4FC80132
:100C20000E948F048823C9F068E0CE0101960E94DB
:100C300075039985891311C08D818F3361F020F47C
:100C40008F3159F489E00CC08F3519F08F3739F0A6
:100C500004C08BE005C08AE003C080E001C08CE0E6
:100C600029960FB6F894DEBF0FBECDBFDF91CF91AE
:100C70001F910F910895009769F0FC0101900020E9
:100C8000E9F73197AF01481B590BBC0182E792E0AD
:100C90000C948A0180E090E00895CF93DF930E9446
:100CA0003B06EC018EE192E00E943B068C0F9D1FFB
:100CB000DF91CF9108958F929F92AF92BF920F9341
:100CC0001F93CF93DF93CDB7DEB7A1970FB6F894FC
:100CD000DEBF0FBECDBF19A2423008F44AE08E013C
:100CE0000F5D1F4F842E912CA12CB12CA5019401D6
:100CF0000E94670EE62FB901CA0101501109EA30BE
:100D000014F4E05D01C0E95CD801EC93232B242BA3
:100D1000252B61F7C8010E943B06A1960FB6F894F7
:100D2000DEBF0FBECDBFDF91CF911F910F91BF905E
:100D3000AF909F908F900895CF93DF934AE00E94E9
:100D40005B06EC018EE192E00E943B068C0F9D1F3A
:100D5000DF91CF9108954F925F926F927F928F9221
:100D60009F92AF92BF92CF92DF92EF92FF926B0170
:100D70007C019B01AC010E946A10882319F084E574
:100D800092E01AC046015701E894B7F82FEF3FEF01
:100D90004FE75FE7C501B4010E946A10811110C0DE
:100DA0002FEF3FEF4FE75FE7C501B4010E94120F3D
:100DB000181634F488E592E00E943B067C0183C05B
:100DC0002FEF3FEF4FE75FE4C701B6010E94F80F36
:100DD00018161CF48CE592E0EFCF2FEF3FEF4FE7B2
:100DE0005FECC701B6010E94120F87FDF3CF20E030
:100DF00030E0A901C701B6010E94120F87FF0BC0A6
:100E00006DE282E792E00E9421025C01F7FAF09421
:100E1000F7F8F09402C0A12CB12C2AE037ED43EA98
:100E20005BE3C701B6010E94A60E2B013C010E94A4
:100E3000170F6B017C010E94460F9B01AC01C3019F
:100E4000B2010E94A50E2B013C014AE0C701B60188
:100E50000E945B067C01EA0CFB1C6EE282E792E0DA
:100E60000E942102E80EF91E20E030E040E251E449
:100E7000C301B2010E94FD0F2B013C010E94170F1C
:100E80004B01A12CB12C4AE0C501B4010E945B06C4
:100E9000E80EF91EC501B4010E94460F9B01AC018A
:100EA000C301B2010E94A50E20E030E040E251E40F
:100EB0000E94FD0F0E94170F80E090E04AE00E9420
:100EC0005B06E80EF91E8EE192E00E943B068E0D55
:100ED0009F1DFF90EF90DF90CF90BF90AF909F90BD
:100EE0008F907F906F905F904F900895362F90E095
:100EF000FC01E054FE4F4491FC01EA59FD4F24915E
:100F0000FC01E05EFD4F9491992309F46CC04423E9
:100F100009F455C050E0FA013197E231F10508F0CB
:100F20004EC08827EE58FF4F8F4F0C94890E80914A
:100F300080008F7707C0809180008F7D03C08091F3
:100F40008000877F809380003AC084B58F7702C08D
:100F500084B58F7D84BD33C08091B0008F7703C08E
:100F60008091B0008F7D8093B00029C08091900067
:100F70008F7707C0809190008F7D03C08091900093
:100F8000877F809390001BC08091A0008F7707C05F
:100F90008091A0008F7D03C08091A000877F809307
:100FA000A0000DC0809120018F7707C080912001A3
:100FB0008F7D03C080912001877F80932001E92FDE
:100FC000F0E0EE0FFF1FEA55FE4FA591B4919FB7D9
:100FD000F894311104C08C912095282302C0EC9123
:100FE0002E2B2C939FBF0895CF93DF9390E0FC01AD
:100FF000EA59FD4F2491FC01E05EFD4F8491882366
:1010000061F190E0880F991FFC01E457FE4FC591F4
:10101000D491FC01EA55FE4FA591B491611109C02C
:101020009FB7F8948881209582238883EC912E23A2
:101030000BC0623061F49FB7F8948881322F3095ED
:1010400083238883EC912E2B2C939FBF06C08FB7F0
:10105000F894E8812E2B28838FBFDF91CF910895DC
:101060008F929F92AF92BF92CF92DF92EF92FF92B8
:101070006B017C010E946A044B015C01C114D10424
:10108000E104F104F1F00E946A04DC01CB0188194B
:101090009909AA09BB09883E9340A105B10570F3DF
:1010A00021E0C21AD108E108F10888EE880E83E039
:1010B000981EA11CB11CC114D104E104F10419F75C
:1010C000DDCFFF90EF90DF90CF90BF90AF909F90DB
:1010D0008F9008952FB7F89460916A0270916B0217
:1010E00080916C0290916D022FBF08958F929F9214
:1010F000AF92BF92CF92DF92EF92FF92CF93DF93A6
:101100008091190390911A030E94330440E06CEC23
:101110008091190390911A030E94E00340911303F8
:1011200064E48091190390911A030E94E003809176
:101130001503882309F445C0E0911403E950E33016
:1011400040F4F0E0EE0FFF1FE050FE4FC081D18170
:1011500002C0CEEED2E080911603882311F1809177
:10116000130381111EC00E946A084B015C016E01CD
:10117000DD0FEE08FF088091190390911A030E9479
:101180008D038130F1F00E946A08DC01CB018C19DB
:101190009D09AE09BF0988159905AA05BB0558F335
:1011A00010C0BE01DD0F880B990BDF91CF91FF902E
:1011B000EF90DF90CF90BF90AF909F908F900C9466
:1011C0003008DF91CF91FF90EF90DF90CF90BF90EC
:1011D000AF909F908F9008953F924F925F926F9241
:1011E0007F928F929F92AF92BF92CF92DF92EF92B7
:1011F000FF920F931F93CF93DF93CDB7DEB72E9758
:101200000FB6F894DEBF0FBECDBF0E946A086D8393
:101210007E838F8398878091550390915603A09188
:101220005703B09158034D815E816F817885481BCB
:10123000590B6A0B7B0B8091610390916203A09123
:101240006303B0916403481759076A077B0708F4E2
:1012500023C1E0914F03F091500380819181A281DD
:10126000B38189839A83AB83BC83E0915303F0916C
:1012700054039C01AD0160817181828193810E9440
:10128000A50E4B015C0120915D0330915E034091FE
:101290005F035091600369817A818B819C810E94F8
:1012A000A50E6B017C0120914303309144034091D2
:1012B000450350914603C501B4010E94FD0F2091E2
:1012C000590330915A0340915B0350915C030E9493
:1012D000A60E2B013C016093590370935A0380932F
:1012E0005B0390935C0330906E0331101AC0209121
:1012F0003F03309140034091410350914203C701A5
:10130000B6010E94FD0F9B01AC01C301B2010E9416
:10131000A50E6093590370935A0380935B039093D7
:101320005C034090590350905A0360905B037090A7
:101330005C031091690390916A039E87A0916B03EF
:10134000AD8700916C03212F392F4A2F502FC301F5
:10135000B2010E94F80F18162CF4812F9E85AD85DE
:10136000B02F18C08091650390916603A091670328
:10137000B091680389879A87AB87BC879C01AD01D0
:10138000C301B2010E94120F87FF0CC089859A85A4
:10139000AB85BC858093590390935A03A0935B035C
:1013A000B0935C03332079F020913F0330914003E8
:1013B0004091410350914203C501B4010E94FD0FC9
:1013C0004B015C0103C0812C912C540120914703F7
:1013D000309148034091490350914A03C701B60137
:1013E0000E94FD0F9B01AC016091590370915A035B
:1013F00080915B0390915C030E94A50EA50194016E
:101400000E94A60E6B017C019B01AC01612F7E85C1
:101410008D85902F0E94120F87FD18C010916503D3
:10142000909166039E87A0916703AD870091680342
:10143000212F392F4A2F502FB601C7010E94120FBA
:1014400087FD04C01C2DDE86ED860F2DE091510333
:10145000F0915203812F9E85AD85B02F80839183BB
:10146000A283B38389819A81AB81BC8180935D0320
:1014700090935E03A0935F03B09360038D819E8180
:10148000AF81B8858093550390935603A09357037B
:10149000B093580381E001C080E02E960FB6F89417
:1014A000DEBF0FBECDBFDF91CF911F910F91FF9097
:1014B000EF90DF90CF90BF90AF909F908F907F90F4
:1014C0006F905F904F903F900895CF93DF93CDB78B
:1014D000DEB728970FB6F894DEBF0FBECDBF789465
:1014E00084B5826084BD84B5816084BD85B5826029
:1014F00085BD85B5816085BD80916E0081608093DA
:101500006E00109281008091810082608093810042
:101510008091810081608093810080918000816052
:10152000809380008091B10084608093B1008091AD
:10153000B00081608093B0008091910082608093C0
:101540009100809191008160809391008091900042
:101550008160809390008091A10082608093A100BF
:101560008091A10081608093A1008091A0008160A2
:101570008093A0008091210182608093210180915D
:1015800021018160809321018091200181608093FD
:10159000200180917A00846080937A0080917A00A3
:1015A000826080937A0080917A00816080937A00D3
:1015B00080917A00806880937A001092C10061E087
:1015C0008DE00E94F40761E080E20E94F40761E090
:1015D0008FE10E94F407E0911903F0911A0313863A
:1015E00015861486DF011B9633961E92AE17BF0731
:1015F000E1F7109217031092180301E0BE016F5F2C
:101600007F4F8091190390911A030E94DB04882375
:1016100009F465C067E0CE0101960E9475039885C4
:101620008913ECCF80911303811127C08091190396
:1016300090911A030E943304BE016F5F7F4F809127
:10164000190390911A030E94140440E064EB809106
:10165000190390911A030E94E0038091190390915D
:101660001A030E948D03182F8091190390911A0379
:101670000E943304112309F43CC1109114038981A1
:10168000803109F4E1C1CE0101960E94F70581176E
:1016900018F48091140309C08981803111F48CE021
:1016A00004C0CE0101960E94F70580931403809137
:1016B00017038F5F809317038981883209F41CC157
:1016C00038F4803109F418C1823209F097CF14C17F
:1016D0008B3309F411C1823409F090CF0DC1E09130
:1016E0008202F091830282E08083E0917E02F09199
:1016F0007F021082E0918002F09181028FEC808362
:1017000010928A02E0918602F091870286E080833F
:10171000E0918402F0918502808180618083E09174
:101720008402F0918502808188608083E091840248
:10173000F0918502808180688083E0918402F0913D
:10174000850280818F7D80830E9476080E945D05DE
:1017500060932F037093300380933103909332038F
:1017600080916D03811148C0E0915103F0915203C3
:10177000C080D180E280F380C0925903D0925A0396
:10178000E0925B03F0925C03E0914F03F091500311
:1017900080819181A281B38180935D0390935E03E8
:1017A000A0935F03B09360038090690390906A03F5
:1017B000A0906B03B0906C03A5019401C701B60122
:1017C0000E94F80F181684F08090650390906603CD
:1017D000A0906703B0906803A5019401C701B6010A
:1017E0000E94120F87FF08C08092590390925A03FB
:1017F000A0925B03B0925C0381E080936D03C12CE7
:10180000D12C80EAE82E82E4F82E11E0C092270362
:10181000D0922803E0922903F0922A030E947608CE
:1018200088E192E00E943B066091680270E080E0EF
:1018300090E04AE00E945B068EE192E00E943B0647
:1018400060E070E080EA92E40E94AB060E945D05D1
:101850000E94AB0680916802811154C00E945D0510
:1018600020E030E040EA52E40E94F80F87FDC6C055
:10187000109368020E946A08609364027093650284
:10188000809366029093670280900F0390901003FC
:10189000A0901103B0901203DC01CB01880D991DBB
:1018A000AA1DBB1D8093600290936102A093620207
:1018B000B093630289E292E00E943B066091640269
:1018C0007091650280916602909167020E949C0669
:1018D00087E392E00E943B06609160027091610292
:1018E00080916202909163020E949C0683E492E0E0
:1018F00082C000931303C1CE809118038F5F809341
:1019000018037CCE0E945D0520E030E04CE952E4F3
:101910000E94F80F87FD72C00E946A0880906002E2
:1019200090906102A0906202B09063026815790500
:101930008A059B0508F462C086E492E00E944D0689
:1019400066E970E080E090E00E94300880916802D3
:10195000882309F46EC00E946A088090600290900B
:101960006102A0906202B090630286169706A806F4
:10197000B90608F45EC061E08DE00E9476070E941F
:101980005D0560932F037093300380933103909330
:10199000320380916D0381110E94EC0820E030E059
:1019A00040E251E460912B0370912C0380912D0350
:1019B00090912E030E94F80F18160CF043C061E0BE
:1019C00080E20E9476070E9476080E946A080E94C0
:1019D0009C06609160027091610280916202909118
:1019E00063020E949C0664E670E080E090E00E9442
:1019F000300881E292E00E944D06A8CF8FE492E089
:101A00000E944D0687E392E00E943B0660916002CF
:101A10007091610280916202909163020E949C0623
:101A20000E946A080E949C0660E08DE00E94760792
:101A30008DCF68EE73E080E090E00E9430080E9455
:101A40009002E4CE60E0BCCF1D3008F022CE27CE5D
:101A50000F931F93109275021092740288EE93E018
:101A6000A0E0B0E08093760290937702A093780292
:101A7000B09379028AE092E09093730280937202AD
:101A800085EC90E090937F0280937E0284EC90E05E
:101A9000909381028093800280EC90E09093830287
:101AA0008093820281EC90E090938502809384027F
:101AB00082EC90E0909387028093860286EC90E01F
:101AC000909389028093880210928B0210928C026C
:101AD00010928D0210928E028BE293E0909352034B
:101AE000809351038FE293E09093500380934F03D0
:101AF00087E293E0909354038093530310926D0315
:101B000010926503109266031092670310926803A7
:101B100080E090E0AFE7B3E48093690390936A03B9
:101B2000A0936B03B0936C0384E690E0A0E0B0E078
:101B30008093610390936203A0936303B093640363
:101B400010924C0310924B0381E090E090934E036F
:101B500080934D0380936E0380E090E0A0E8BFE3A4
:101B60008093330390933403A0933503B0933603EB
:101B70004DEC5CEC6CE47DE3409337035093380309
:101B80006093390370933A0340E050E060E87EE3ED
:101B900040933B0350933C0360933D0370933E039B
:101BA00080933F0390934003A0934103B09342037B
:101BB0008BE097EDA3EABBE3809343039093440348
:101BC000A0934503B093460380E090E0A0E2B0E428
:101BD0008093470390934803A0934903B0934A032B
:101BE0000E946A08009161031091620320916303CF
:101BF00030916403DC01CB01801B910BA20BB30B72
:101C00008093550390935603A0935703B0935803C2
:101C100060E086E10E94F407ECE7F2E0E491E093F3
:101C20006F03E6E3F2E0E491F0E0EE0FFF1FEA5FFE
:101C3000FD4F85919491909371038093700310925E
:101C40007A0310927C0310927B03EAE7F3E012928E
:101C500083E0E237F807D9F78FE693E090931A0311
:101C60008093190310921703109218031092130314
:101C700089E08093140381E0809315038093160319
:101C8000109226031092250380E69AEEA0E0B0E0C1
:101C900080930F0390931003A0931103B09312034A
:101CA0001F910F91089597FB072E16F4009407D00B
:101CB00077FD09D00E94910E07FC05D03EF4909567
:101CC00081959F4F0895709561957F4F0895A1E28A
:101CD0001A2EAA1BBB1BFD010DC0AA1FBB1FEE1FA6
:101CE000FF1FA217B307E407F50720F0A21BB30BF1
:101CF000E40BF50B661F771F881F991F1A9469F76D
:101D000060957095809590959B01AC01BD01CF01C8
:101D10000895EE0FFF1F881F8BBF0790F691E02DEF
:101D20001994AA1BBB1B51E107C0AA1FBB1FA61712
:101D3000B70710F0A61BB70B881F991F5A95A9F774
:101D400080959095BC01CD0108955058BB27AA27D6
:101D50000E94BD0E0C94BE0F0E94B00F38F00E947E
:101D6000B70F20F039F49F3F19F426F40C94AD0F0F
:101D70000EF4E095E7FB0C94A70FE92F0E94CF0F1C
:101D800058F3BA17620773078407950720F079F4B0
:101D9000A6F50C94F10F0EF4E0950B2EBA2FA02DA2
:101DA0000B01B90190010C01CA01A0011124FF2708
:101DB000591B99F0593F50F4503E68F11A16F04003
:101DC000A22F232F342F4427585FF3CF4695379502
:101DD0002795A795F0405395C9F77EF41F16BA0BC7
:101DE000620B730B840BBAF09150A1F0FF0FBB1F75
:101DF000661F771F881FC2F70EC0BA0F621F731FBE
:101E0000841F48F4879577956795B795F7959E3F1A
:101E100008F0B0CF9395880F08F09927EE0F9795AB
:101E2000879508950E94830F08F481E008950E9429
:101E3000D70F88F09F5798F0B92F9927B751B0F076
:101E4000E1F0660F771F881F991F1AF0BA95C9F73E
:101E500014C0B13091F00E94F10FB1E008950C94DC
:101E6000F10F672F782F8827B85F39F0B93FCCF38F
:101E7000869577956795B395D9F73EF490958095BB
:101E8000709561957F4F8F4F9F4F0895E89409C0DB
:101E900097FB3EF490958095709561957F4F8F4F9D
:101EA0009F4F9923A9F0F92F96E9BB279395F695B3
:101EB000879577956795B795F111F8CFFAF4BB0F31
:101EC00011F460FF1BC06F5F7F4F8F4F9F4F16C095
:101ED000882311F096E911C0772321F09EE8872F1F
:101EE000762F05C0662371F096E8862F70E060E0DB
:101EF0002AF09A95660F771F881FDAF7880F969554
:101F0000879597F90895990F0008550FAA0BE0E8F7
:101F1000FEEF16161706E807F907C0F012161306AB
:101F2000E407F50798F0621B730B840B950B39F4EB
:101F30000A2661F0232B242B252B21F408950A2651
:101F400009F4A140A6958FEF811D811D089597F991
:101F50009F6780E870E060E008959FEF80EC08954F
:101F600000240A9416161706180609060895002478
:101F70000A9412161306140605060895092E0394F2
:101F8000000C11F4882352F0BB0F40F4BF2B11F466
:101F900060FF04C06F5F7F4F8F4F9F4F089557FDC5
:101FA0009058440F551F59F05F3F71F04795880FC7
:101FB00097FB991F61F09F3F79F08795089512165E
:101FC00013061406551FF2CF4695F1DF08C016160A
:101FD00017061806991FF1CF8695710561050894BB
:101FE0000895E894BB2766277727CB0197F90895D2
:101FF0000E94830F08F48FEF08950E9410100C9434
:10200000BE0F0E94B00F38F00E94B70F20F095234A
:1020100011F00C94A70F0C94AD0F11240C94F20F37
:102020000E94CF0F70F3959FC1F3950F50E0551F9D
:10203000629FF001729FBB27F00DB11D639FAA271D
:10204000F00DB11DAA1F649F6627B00DA11D661F6C
:10205000829F2227B00DA11D621F739FB00DA11D8D
:10206000621F839FA00D611D221F749F3327A00D47
:10207000611D231F849F600D211D822F762F6A2FE3
:1020800011249F5750409AF0F1F088234AF0EE0F48
:10209000FF1FBB1F661F771F881F91505040A9F775
:1020A0009E3F510580F00C94A70F0C94F20F5F3FF8
:1020B000E4F3983ED4F3869577956795B795F795B1
:1020C000E7959F5FC1F7FE2B880F911D9695879529
:1020D00097F908950E94830F880B990B089581E06A
:0C20E00090E0F8940C947410F894FFCF7A
:1020EC005E00BC0077010000000021028A01B801EB
:1020FC006E02E901C701DB0154656D7020000D0A09
:10210C00007768696C652031007374617274207497
:10211C00696D653A20200073746F702074696D6569
:10212C003A2000696600696620656C73652000655D
:10213C006C7365006E616E00696E66006F7666008A
:00000001FF
